{
  "contractName": "Crud",
  "abi": [
    {
      "inputs": [],
      "name": "nextId",
      "outputs": [
        {
          "internalType": "uint256",
          "name": "",
          "type": "uint256"
        }
      ],
      "stateMutability": "view",
      "type": "function"
    },
    {
      "inputs": [
        {
          "internalType": "uint256",
          "name": "",
          "type": "uint256"
        }
      ],
      "name": "users",
      "outputs": [
        {
          "internalType": "uint256",
          "name": "id",
          "type": "uint256"
        },
        {
          "internalType": "string",
          "name": "name",
          "type": "string"
        }
      ],
      "stateMutability": "view",
      "type": "function"
    },
    {
      "inputs": [
        {
          "internalType": "string",
          "name": "name",
          "type": "string"
        }
      ],
      "name": "create",
      "outputs": [],
      "stateMutability": "nonpayable",
      "type": "function"
    },
    {
      "inputs": [
        {
          "internalType": "uint256",
          "name": "id",
          "type": "uint256"
        }
      ],
      "name": "read",
      "outputs": [
        {
          "internalType": "uint256",
          "name": "",
          "type": "uint256"
        },
        {
          "internalType": "string",
          "name": "",
          "type": "string"
        }
      ],
      "stateMutability": "view",
      "type": "function"
    },
    {
      "inputs": [
        {
          "internalType": "uint256",
          "name": "id",
          "type": "uint256"
        },
        {
          "internalType": "string",
          "name": "name",
          "type": "string"
        }
      ],
      "name": "update",
      "outputs": [],
      "stateMutability": "nonpayable",
      "type": "function"
    },
    {
      "inputs": [
        {
          "internalType": "uint256",
          "name": "id",
          "type": "uint256"
        }
      ],
      "name": "destroy",
      "outputs": [],
      "stateMutability": "nonpayable",
      "type": "function"
    }
  ],
  "bytecode": "0x608060405260018055348015610013575f80fd5b506107b7806100215f395ff3fe608060405234801561000f575f80fd5b5060043610610060575f3560e01c8063365b98b21461006457806361b8ce8c1461008e5780639d118770146100a5578063b6a46b3b146100ba578063ed2e5a97146100cd578063f745630f146100e0575b5f80fd5b610077610072366004610482565b6100f3565b604051610085929190610499565b60405180910390f35b61009760015481565b604051908152602001610085565b6100b86100b3366004610482565b6101a6565b005b6100b86100c8366004610589565b6101e9565b6100776100db366004610482565b610282565b6100b86100ee3660046105c3565b610367565b5f8181548110610101575f80fd5b5f918252602090912060029091020180546001820180549193509061012590610607565b80601f016020809104026020016040519081016040528092919081815260200182805461015190610607565b801561019c5780601f106101735761010080835404028352916020019161019c565b820191905f5260205f20905b81548152906001019060200180831161017f57829003601f168201915b5050505050905082565b5f6101b0826103a1565b90505f81815481106101c4576101c461063f565b5f91825260208220600290910201818155906101e36001830182610430565b50505050565b60408051808201909152600180548252602082018381525f805492830181558052825160029092027f290decd9548b62a8d60345a988386fc84ba6bc95484008f6362f93160ef3e563810192835590517f290decd9548b62a8d60345a988386fc84ba6bc95484008f6362f93160ef3e5649091019061026890826106a1565b50506001805491505f61027a8361075d565b919050555050565b5f60605f61028f846103a1565b90505f81815481106102a3576102a361063f565b905f5260205f2090600202015f01545f82815481106102c4576102c461063f565b905f5260205f2090600202016001018080546102df90610607565b80601f016020809104026020016040519081016040528092919081815260200182805461030b90610607565b80156103565780601f1061032d57610100808354040283529160200191610356565b820191905f5260205f20905b81548152906001019060200180831161033957829003601f168201915b505050505090509250925050915091565b5f610371836103a1565b9050815f82815481106103865761038661063f565b905f5260205f20906002020160010190816101e391906106a1565b5f805b5f548110156103ec57825f82815481106103c0576103c061063f565b905f5260205f2090600202015f0154036103da5792915050565b806103e48161075d565b9150506103a4565b5060405162461bcd60e51b81526020600482015260146024820152735573657220646f6573206e6f742065786973742160601b604482015260640160405180910390fd5b50805461043c90610607565b5f825580601f1061044b575050565b601f0160209004905f5260205f2090810190610467919061046a565b50565b5b8082111561047e575f815560010161046b565b5090565b5f60208284031215610492575f80fd5b5035919050565b8281525f602060408184015283518060408501525f5b818110156104cb578581018301518582016060015282016104af565b505f606082860101526060601f19601f830116850101925050509392505050565b634e487b7160e01b5f52604160045260245ffd5b5f82601f83011261050f575f80fd5b813567ffffffffffffffff8082111561052a5761052a6104ec565b604051601f8301601f19908116603f01168101908282118183101715610552576105526104ec565b8160405283815286602085880101111561056a575f80fd5b836020870160208301375f602085830101528094505050505092915050565b5f60208284031215610599575f80fd5b813567ffffffffffffffff8111156105af575f80fd5b6105bb84828501610500565b949350505050565b5f80604083850312156105d4575f80fd5b82359150602083013567ffffffffffffffff8111156105f1575f80fd5b6105fd85828601610500565b9150509250929050565b600181811c9082168061061b57607f821691505b60208210810361063957634e487b7160e01b5f52602260045260245ffd5b50919050565b634e487b7160e01b5f52603260045260245ffd5b601f82111561069c575f81815260208120601f850160051c810160208610156106795750805b601f850160051c820191505b8181101561069857828155600101610685565b5050505b505050565b815167ffffffffffffffff8111156106bb576106bb6104ec565b6106cf816106c98454610607565b84610653565b602080601f831160018114610702575f84156106eb5750858301515b5f19600386901b1c1916600185901b178555610698565b5f85815260208120601f198616915b8281101561073057888601518255948401946001909101908401610711565b508582101561074d57878501515f19600388901b60f8161c191681555b5050505050600190811b01905550565b5f6001820161077a57634e487b7160e01b5f52601160045260245ffd5b506001019056fea2646970667358221220fb787f52f45e525edf29b20d7e6cea99f08e77f5407c069b3d9db2cc9febb55864736f6c63430008140033",
  "immutableReferences": {},
  "source": "pragma solidity 0.8.20;\n\ncontract Crud {\n  struct User {\n    uint id;\n    string name;\n  }\n  User[] public users;\n  uint public nextId = 1;\n\n  function create(string memory name) public {\n    users.push(User(nextId, name));\n    nextId++;\n  }\n\n  function read(uint id) view public returns(uint, string memory) {\n    uint i = find(id);\n    return(users[i].id, users[i].name);\n  }\n\n  function update(uint id, string memory name) public {\n    uint i = find(id);\n    users[i].name = name;\n  }\n\n  function destroy(uint id) public {\n    uint i = find(id);\n    delete users[i];\n  }\n\n  function find(uint id) view internal returns(uint) {\n    for(uint i = 0; i < users.length; i++) {\n      if(users[i].id == id) {\n        return i;\n      }\n    }\n    revert('User does not exist!');\n  }\n\n}\n",
  "sourcePath": "/home/klgwn/Documents/klgwn/studies/web_3/study-dapps-real-one/day5-Crud/end/contracts/Crud.sol",
  "compiler": {
    "name": "solc",
    "version": "0.8.20+commit.a1b79de6.Emscripten.clang"
  },
  "schemaVersion": "3.4.16",
  "updatedAt": "2025-06-11T09:24:05.978Z",
  "devdoc": {
    "kind": "dev",
    "methods": {},
    "version": 1
  },
  "userdoc": {
    "kind": "user",
    "methods": {},
    "version": 1
  }
}