{
  "contractName": "AdvancedStorage",
  "abi": [
    {
      "inputs": [
        {
          "internalType": "uint256",
          "name": "",
          "type": "uint256"
        }
      ],
      "name": "ids",
      "outputs": [
        {
          "internalType": "uint256",
          "name": "",
          "type": "uint256"
        }
      ],
      "stateMutability": "view",
      "type": "function",
      "constant": true
    },
    {
      "inputs": [
        {
          "internalType": "uint256",
          "name": "id",
          "type": "uint256"
        }
      ],
      "name": "add",
      "outputs": [],
      "stateMutability": "nonpayable",
      "type": "function"
    },
    {
      "inputs": [
        {
          "internalType": "uint256",
          "name": "i",
          "type": "uint256"
        }
      ],
      "name": "get",
      "outputs": [
        {
          "internalType": "uint256",
          "name": "",
          "type": "uint256"
        }
      ],
      "stateMutability": "view",
      "type": "function",
      "constant": true
    },
    {
      "inputs": [],
      "name": "getAll",
      "outputs": [
        {
          "internalType": "uint256[]",
          "name": "",
          "type": "uint256[]"
        }
      ],
      "stateMutability": "view",
      "type": "function",
      "constant": true
    },
    {
      "inputs": [],
      "name": "length",
      "outputs": [
        {
          "internalType": "uint256",
          "name": "",
          "type": "uint256"
        }
      ],
      "stateMutability": "view",
      "type": "function",
      "constant": true
    }
  ],
  "bytecode": "0x608060405234801561001057600080fd5b506103d1806100206000396000f3fe608060405234801561001057600080fd5b5060043610610074576000357c0100000000000000000000000000000000000000000000000000000000900480631003e2d2146100795780631f7b6d321461009557806353ed5143146100b35780639507d39a146100d1578063fac333ac14610101575b600080fd5b610093600480360381019061008e9190610247565b610131565b005b61009d61015d565b6040516100aa9190610326565b60405180910390f35b6100bb610169565b6040516100c89190610304565b60405180910390f35b6100eb60048036038101906100e69190610247565b6101c1565b6040516100f89190610326565b60405180910390f35b61011b60048036038101906101169190610247565b61020e565b6040516101289190610326565b60405180910390f35b600081908060018154018082558091505060019003906000526020600020016000909190919091505550565b60008080549050905090565b606060008054806020026020016040519081016040528092919081815260200182805480156101b757602002820191906000526020600020905b8154815260200190600101908083116101a3575b5050505050905090565b60008082815481106101fc577f4e487b7100000000000000000000000000000000000000000000000000000000600052603260045260246000fd5b90600052602060002001549050919050565b6000818154811061021e57600080fd5b906000526020600020016000915090505481565b60008135905061024181610384565b92915050565b60006020828403121561025957600080fd5b600061026784828501610232565b91505092915050565b600061027c83836102e6565b60208301905092915050565b600061029382610351565b61029d8185610369565b93506102a883610341565b8060005b838110156102d95781516102c08882610270565b97506102cb8361035c565b9250506001810190506102ac565b5085935050505092915050565b6102ef8161037a565b82525050565b6102fe8161037a565b82525050565b6000602082019050818103600083015261031e8184610288565b905092915050565b600060208201905061033b60008301846102f5565b92915050565b6000819050602082019050919050565b600081519050919050565b6000602082019050919050565b600082825260208201905092915050565b6000819050919050565b61038d8161037a565b811461039857600080fd5b5056fea264697066735822122047ab971c55cb4ce502de2835974166e43d44d750ffb66e1ef19cf4c307ed169d64736f6c63430008000033",
  "immutableReferences": {},
  "source": "pragma solidity ^0.8.0;\n\ncontract AdvancedStorage {\n  uint[] public ids;\n\n  function add(uint id) public {\n    ids.push(id);\n  }\n\n  function get(uint i) view public returns(uint) {\n    return ids[i];\n  }\n  \n  function getAll() view public returns(uint[] memory) {\n    return ids;\n  }\n\n  function length() view public returns(uint) {\n    return ids.length;\n  }\n}\n",
  "sourcePath": "/home/klgwn/Documents/klgwn/studies/web_3/study-dapps-real-one/day4-AdvancedStorage/end/contracts/AdvancedStorage.sol",
  "compiler": {
    "name": "solc",
    "version": "0.8.0+commit.c7dfd78e.Linux.g++"
  },
  "schemaVersion": "3.4.16",
  "updatedAt": "2025-06-09T11:53:41.425Z",
  "networkType": "ethereum",
  "devdoc": {
    "kind": "dev",
    "methods": {},
    "version": 1
  },
  "userdoc": {
    "kind": "user",
    "methods": {},
    "version": 1
  }
}