{
  "contractName": "Voting",
  "abi": [
    {
      "inputs": [],
      "stateMutability": "nonpayable",
      "type": "constructor"
    },
    {
      "inputs": [],
      "name": "admin",
      "outputs": [
        {
          "internalType": "address",
          "name": "",
          "type": "address"
        }
      ],
      "stateMutability": "view",
      "type": "function"
    },
    {
      "inputs": [
        {
          "internalType": "uint256",
          "name": "",
          "type": "uint256"
        }
      ],
      "name": "ballots",
      "outputs": [
        {
          "internalType": "uint256",
          "name": "id",
          "type": "uint256"
        },
        {
          "internalType": "string",
          "name": "name",
          "type": "string"
        },
        {
          "internalType": "uint256",
          "name": "end",
          "type": "uint256"
        }
      ],
      "stateMutability": "view",
      "type": "function"
    },
    {
      "inputs": [],
      "name": "nextBallotId",
      "outputs": [
        {
          "internalType": "uint256",
          "name": "",
          "type": "uint256"
        }
      ],
      "stateMutability": "view",
      "type": "function"
    },
    {
      "inputs": [
        {
          "internalType": "address",
          "name": "",
          "type": "address"
        }
      ],
      "name": "voters",
      "outputs": [
        {
          "internalType": "bool",
          "name": "",
          "type": "bool"
        }
      ],
      "stateMutability": "view",
      "type": "function"
    },
    {
      "inputs": [
        {
          "internalType": "address",
          "name": "",
          "type": "address"
        },
        {
          "internalType": "uint256",
          "name": "",
          "type": "uint256"
        }
      ],
      "name": "votes",
      "outputs": [
        {
          "internalType": "bool",
          "name": "",
          "type": "bool"
        }
      ],
      "stateMutability": "view",
      "type": "function"
    },
    {
      "inputs": [
        {
          "internalType": "uint256",
          "name": "id",
          "type": "uint256"
        }
      ],
      "name": "getBallot",
      "outputs": [
        {
          "components": [
            {
              "internalType": "uint256",
              "name": "id",
              "type": "uint256"
            },
            {
              "internalType": "string",
              "name": "name",
              "type": "string"
            },
            {
              "components": [
                {
                  "internalType": "uint256",
                  "name": "id",
                  "type": "uint256"
                },
                {
                  "internalType": "string",
                  "name": "name",
                  "type": "string"
                },
                {
                  "internalType": "uint256",
                  "name": "votes",
                  "type": "uint256"
                }
              ],
              "internalType": "struct Voting.Choice[]",
              "name": "choices",
              "type": "tuple[]"
            },
            {
              "internalType": "uint256",
              "name": "end",
              "type": "uint256"
            }
          ],
          "internalType": "struct Voting.Ballot",
          "name": "",
          "type": "tuple"
        }
      ],
      "stateMutability": "view",
      "type": "function"
    },
    {
      "inputs": [
        {
          "internalType": "address[]",
          "name": "_voters",
          "type": "address[]"
        }
      ],
      "name": "addVoters",
      "outputs": [],
      "stateMutability": "nonpayable",
      "type": "function"
    },
    {
      "inputs": [
        {
          "internalType": "string",
          "name": "name",
          "type": "string"
        },
        {
          "internalType": "string[]",
          "name": "_choices",
          "type": "string[]"
        },
        {
          "internalType": "uint256",
          "name": "offset",
          "type": "uint256"
        }
      ],
      "name": "createBallot",
      "outputs": [],
      "stateMutability": "nonpayable",
      "type": "function"
    },
    {
      "inputs": [
        {
          "internalType": "uint256",
          "name": "ballotId",
          "type": "uint256"
        },
        {
          "internalType": "uint256",
          "name": "choiceId",
          "type": "uint256"
        }
      ],
      "name": "vote",
      "outputs": [],
      "stateMutability": "nonpayable",
      "type": "function"
    },
    {
      "inputs": [
        {
          "internalType": "uint256",
          "name": "ballotId",
          "type": "uint256"
        }
      ],
      "name": "results",
      "outputs": [
        {
          "components": [
            {
              "internalType": "uint256",
              "name": "id",
              "type": "uint256"
            },
            {
              "internalType": "string",
              "name": "name",
              "type": "string"
            },
            {
              "internalType": "uint256",
              "name": "votes",
              "type": "uint256"
            }
          ],
          "internalType": "struct Voting.Choice[]",
          "name": "",
          "type": "tuple[]"
        }
      ],
      "stateMutability": "view",
      "type": "function"
    }
  ],
  "bytecode": "0x608060405234801561000f575f80fd5b50600380546001600160a01b03191633179055610fb98061002f5f395ff3fe608060405234801561000f575f80fd5b506004361061009b575f3560e01c8063a3ec138d11610063578063a3ec138d1461014f578063b384abef14610171578063dc6bfbb514610184578063f851a4401461019b578063f9d5ee75146101c6575f80fd5b80631b0c27da1461009f57806320faae8e146100c85780635c632b38146100dd5780638203373a146100ff5780639f2524ee14610112575b5f80fd5b6100b26100ad3660046109a8565b6101e6565b6040516100bf9190610a02565b60405180910390f35b6100db6100d6366004610b32565b61036e565b005b6100f06100eb3660046109a8565b6104ba565b6040516100bf93929190610c19565b6100db61010d366004610c41565b610561565b61013f610120366004610ccb565b600460209081525f928352604080842090915290825290205460ff1681565b60405190151581526020016100bf565b61013f61015d366004610cf3565b5f6020819052908152604090205460ff1681565b6100db61017f366004610d13565b61061b565b61018d60025481565b6040519081526020016100bf565b6003546101ae906001600160a01b031681565b6040516001600160a01b0390911681526020016100bf565b6101d96101d43660046109a8565b6107bf565b6040516100bf9190610d33565b5f818152600160205260409020600301546060904210156102655760405162461bcd60e51b815260206004820152602e60248201527f63616e6e6f7420736565207468652062616c6c6f7420726573756c742062656660448201526d1bdc994818985b1b1bdd08195b9960921b60648201526084015b60405180910390fd5b5f82815260016020908152604080832060020180548251818502810185019093528083529193909284015b82821015610363578382905f5260205f2090600302016040518060600160405290815f82015481526020016001820180546102ca90610de9565b80601f01602080910402602001604051908101604052809291908181526020018280546102f690610de9565b80156103415780601f1061031857610100808354040283529160200191610341565b820191905f5260205f20905b81548152906001019060200180831161032457829003601f168201915b5050505050815260200160028201548152505081526020019060010190610290565b505050509050919050565b6003546001600160a01b031633146103b55760405162461bcd60e51b815260206004820152600a60248201526937b7363c9030b236b4b760b11b604482015260640161025c565b6002545f818152600160208190526040909120918255016103d68482610e6e565b506103e18142610f3e565b6002545f908152600160205260408120600301919091555b82518110156104a05760015f60025481526020019081526020015f20600201604051806060016040528083815260200185848151811061043b5761043b610f57565b60209081029190910181015182525f91810182905283546001818101865594835291819020835160039093020191825582015191929091908201906104809082610e6e565b50604082015181600201555050808061049890610f6b565b9150506103f9565b5060028054905f6104b083610f6b565b9190505550505050565b600160208190525f9182526040909120805491810180546104da90610de9565b80601f016020809104026020016040519081016040528092919081815260200182805461050690610de9565b80156105515780601f1061052857610100808354040283529160200191610551565b820191905f5260205f20905b81548152906001019060200180831161053457829003601f168201915b5050505050908060030154905083565b6003546001600160a01b031633146105a85760405162461bcd60e51b815260206004820152600a60248201526937b7363c9030b236b4b760b11b604482015260640161025c565b5f5b818110156106165760015f808585858181106105c8576105c8610f57565b90506020020160208101906105dd9190610cf3565b6001600160a01b0316815260208101919091526040015f20805460ff19169115159190911790558061060e81610f6b565b9150506105aa565b505050565b335f9081526020819052604090205460ff1615156001146106755760405162461bcd60e51b81526020600482015260146024820152736f6e6c7920766f746572732063616e20766f746560601b604482015260640161025c565b335f90815260046020908152604080832085845290915290205460ff16156106ed5760405162461bcd60e51b815260206004820152602560248201527f766f7465722063616e206f6e6c7920766f7465206f6e636520666f7220612062604482015264185b1b1bdd60da1b606482015260840161025c565b5f8281526001602052604090206003015442106107585760405162461bcd60e51b815260206004820152602360248201527f63616e206f6e6c7920766f746520756e74696c2062616c6c6f7420656e64206460448201526261746560e81b606482015260840161025c565b335f9081526004602090815260408083208584528252808320805460ff19166001908117909155909152902060020180548290811061079957610799610f57565b5f918252602082206002600390920201018054916107b683610f6b565b91905055505050565b6107e860405180608001604052805f815260200160608152602001606081526020015f81525090565b5f828152600160208181526040928390208351608081019094528054845291820180549184019161081890610de9565b80601f016020809104026020016040519081016040528092919081815260200182805461084490610de9565b801561088f5780601f106108665761010080835404028352916020019161088f565b820191905f5260205f20905b81548152906001019060200180831161087257829003601f168201915b5050505050815260200160028201805480602002602001604051908101604052809291908181526020015f905b8282101561098f578382905f5260205f2090600302016040518060600160405290815f82015481526020016001820180546108f690610de9565b80601f016020809104026020016040519081016040528092919081815260200182805461092290610de9565b801561096d5780601f106109445761010080835404028352916020019161096d565b820191905f5260205f20905b81548152906001019060200180831161095057829003601f168201915b50505050508152602001600282015481525050815260200190600101906108bc565b5050505081526020016003820154815250509050919050565b5f602082840312156109b8575f80fd5b5035919050565b5f81518084525f5b818110156109e3576020818501810151868301820152016109c7565b505f602082860101526020601f19601f83011685010191505092915050565b5f6020808301818452808551808352604092508286019150828160051b8701018488015f5b83811015610a7357603f19898403018552815160608151855288820151818a870152610a55828701826109bf565b92890151958901959095525094870194925090860190600101610a27565b509098975050505050505050565b634e487b7160e01b5f52604160045260245ffd5b604051601f8201601f1916810167ffffffffffffffff81118282101715610abe57610abe610a81565b604052919050565b5f82601f830112610ad5575f80fd5b813567ffffffffffffffff811115610aef57610aef610a81565b610b02601f8201601f1916602001610a95565b818152846020838601011115610b16575f80fd5b816020850160208301375f918101602001919091529392505050565b5f805f60608486031215610b44575f80fd5b833567ffffffffffffffff80821115610b5b575f80fd5b610b6787838801610ac6565b9450602091508186013581811115610b7d575f80fd5b8601601f81018813610b8d575f80fd5b803582811115610b9f57610b9f610a81565b8060051b610bae858201610a95565b918252828101850191858101908b841115610bc7575f80fd5b86850192505b83831015610c0257823586811115610be4575f8081fd5b610bf28d8983890101610ac6565b8352509186019190860190610bcd565b989b989a5050505060409690960135955050505050565b838152606060208201525f610c3160608301856109bf565b9050826040830152949350505050565b5f8060208385031215610c52575f80fd5b823567ffffffffffffffff80821115610c69575f80fd5b818501915085601f830112610c7c575f80fd5b813581811115610c8a575f80fd5b8660208260051b8501011115610c9e575f80fd5b60209290920196919550909350505050565b80356001600160a01b0381168114610cc6575f80fd5b919050565b5f8060408385031215610cdc575f80fd5b610ce583610cb0565b946020939093013593505050565b5f60208284031215610d03575f80fd5b610d0c82610cb0565b9392505050565b5f8060408385031215610d24575f80fd5b50508035926020909101359150565b5f6020808352835181840152808401516040608081860152610d5860a08601836109bf565b915080860151601f1960608188860301818901528483518087528787019150878160051b88010188860195505f5b82811015610dcd57858983030184528651805183528a810151868c850152610db0878501826109bf565b918a0151938a0193909352968a0196938a01939150600101610d86565b50838c015160808c015280995050505050505050505092915050565b600181811c90821680610dfd57607f821691505b602082108103610e1b57634e487b7160e01b5f52602260045260245ffd5b50919050565b601f821115610616575f81815260208120601f850160051c81016020861015610e475750805b601f850160051c820191505b81811015610e6657828155600101610e53565b505050505050565b815167ffffffffffffffff811115610e8857610e88610a81565b610e9c81610e968454610de9565b84610e21565b602080601f831160018114610ecf575f8415610eb85750858301515b5f19600386901b1c1916600185901b178555610e66565b5f85815260208120601f198616915b82811015610efd57888601518255948401946001909101908401610ede565b5085821015610f1a57878501515f19600388901b60f8161c191681555b5050505050600190811b01905550565b634e487b7160e01b5f52601160045260245ffd5b80820180821115610f5157610f51610f2a565b92915050565b634e487b7160e01b5f52603260045260245ffd5b5f60018201610f7c57610f7c610f2a565b506001019056fea26469706673582212202f714fc3b284e48bae391422a937bedac6d903102abdad023953796e97839cb364736f6c63430008140033",
  "immutableReferences": {},
  "source": "pragma solidity 0.8.20;\npragma experimental ABIEncoderV2;\n\ncontract Voting {\n  mapping(address => bool) public voters;\n  struct Choice {\n    uint id;\n    string name;\n    uint votes;\n  }\n  struct Ballot {\n    uint id;\n    string name;\n    Choice[] choices;\n    uint end;\n  }\n  mapping(uint => Ballot) public ballots;\n  uint public nextBallotId;\n  address public admin;\n  mapping(address => mapping(uint => bool)) public votes;\n  \n  constructor() {\n    admin = msg.sender;\n  }\n\n  function getBallot(uint id) external view returns(Ballot memory) {\n    return ballots[id];\n  }\n  \n  function addVoters(address[] calldata _voters) external onlyAdmin() {\n    for(uint i = 0; i < _voters.length; i++) {\n        voters[_voters[i]] = true;\n    }\n  }\n\n  function createBallot(\n    string memory name,\n    string[] memory _choices,\n    uint offset\n    ) public onlyAdmin() {\n      ballots[nextBallotId].id = nextBallotId;\n      ballots[nextBallotId].name = name;\n      ballots[nextBallotId].end = block.timestamp + offset;\n      for(uint i = 0; i < _choices.length ; i++) {\n        ballots[nextBallotId].choices.push(Choice(i, _choices[i], 0));\n      }\n      nextBallotId++;\n  }\n\n  function vote(uint ballotId, uint choiceId) external {\n    require(voters[msg.sender] == true, 'only voters can vote');\n    require(votes[msg.sender][ballotId] == false, 'voter can only vote once for a ballot');\n    require(block.timestamp < ballots[ballotId].end, 'can only vote until ballot end date');\n    votes[msg.sender][ballotId] = true;\n    ballots[ballotId].choices[choiceId].votes++;\n  }\n\n  //If `pragma experimental ABIEncoderV2`\n  function results(uint ballotId) \n    view \n    external \n    returns(Choice[] memory) {\n    require(block.timestamp >= ballots[ballotId].end, 'cannot see the ballot result before ballot end');\n    return ballots[ballotId].choices;\n  }\n\n  //If no `pragma experimental ABIEncoderV2`\n  //function results(uint ballotId) \n  //  view \n  //  external \n  //  returns(uint[] memory, string[] memory, uint[]memory) {\n  //  require(now >= ballots[ballotId].end, 'can only see result after ballot end');\n  //  Choice[] storage choices = ballots[ballotId].choices;\n  //  uint[] memory ids = new uint[](choices.length);\n  //  string[] memory names = new string[](choices.length);\n  //  uint[] memory votes = new uint[](choices.length);\n  //  for(uint i = 0; i < choices.length; i++) {\n  //    ids[i] = choices[i].id;\n  //    names[i] = choices[i].name;\n  //    votes[i] = choices[i].votes;\n  //  }\n  //  return(ids, names, votes);\n  //}\n\n  modifier onlyAdmin() {\n    require(msg.sender == admin, 'only admin');\n    _;\n  }\n}\n",
  "sourcePath": "/home/klgwn/Documents/klgwn/studies/web_3/study-dapps-real-one/voting-dapp/frontend/end/contracts/Voting.sol",
  "compiler": {
    "name": "solc",
    "version": "0.8.20+commit.a1b79de6.Emscripten.clang"
  },
  "schemaVersion": "3.4.16",
  "updatedAt": "2025-06-11T11:12:31.669Z",
  "devdoc": {
    "kind": "dev",
    "methods": {},
    "version": 1
  },
  "userdoc": {
    "kind": "user",
    "methods": {},
    "version": 1
  }
}